0xa7684ac44d48494670b2e0d9085b7750e7341620f0a271db146ed5e70c1db854
0x1dcc4de8dec75d7aab85b567b6ccd41ad312451b948a7413f0a142fd40d49347
0x0000000000000000000000000000000000000000
0x53580584816f617295ea26c0e17641e0120cab2f0a8ffb53a866fd53aa8e8c2d
0x56e81f171bcc55a6ff8345e692c0f86e5b48e01b996cadc001622fb5e363b421
0x56e81f171bcc55a6ff8345e692c0f86e5b48e01b996cadc001622fb5e363b421
0x00000000000000000000000000000000000000000000000000000000000000000000000000000000000000000000000000000000000000000000000000000000000000000000000000000000000000000000000000000000000000000000000000000000000000000000000000000000000000000000000000000000000000000000000000000000000000000000000000000000000000000000000000000000000000000000000000000000000000000000000000000000000000000000000000000000000000000000000000000000000000000000000000000000000000000000000000000000000000000000000000000000000000000000000000000000
2
2
4709181
0
1492010474
0xd783010600846765746887676f312e372e33856c696e75780000000000000000b5a4a624d2e19fdab62ff7f4d2f2b80dfab4c518761beb56c2319c4224dd156f698bb1a2750c7edf12d61c4022079622062039637f40fb817e2cce0f0a4dae9c01
0x0000000000000000000000000000000000000000000000000000000000000000
0x0000000000000000

{ difficulty: { [String: ‘2’] s: 1, e: 0, c: [ 2 ] },
  extraData: ‘0xd783010600846765746887676f312e372e33856c696e75780000000000000000b5a4a624d2e19fdab62ff7f4d2f2b80dfab4c518761beb56c2319c4224dd156f698bb1a2750c7edf12d61c4022079622062039637f40fb817e2cce0f0a4dae9c01’,
  gasLimit: 4709181,
  gasUsed: 0,
  hash: ‘0x9b095b36c15eaf13044373aef8ee0bd3a382a5abb92e402afa44b8249c3a90e9’,
  logsBloom: ‘0x00000000000000000000000000000000000000000000000000000000000000000000000000000000000000000000000000000000000000000000000000000000000000000000000000000000000000000000000000000000000000000000000000000000000000000000000000000000000000000000000000000000000000000000000000000000000000000000000000000000000000000000000000000000000000000000000000000000000000000000000000000000000000000000000000000000000000000000000000000000000000000000000000000000000000000000000000000000000000000000000000000000000000000000000000000000’,
  miner: ‘0x0000000000000000000000000000000000000000’,
  mixHash: ‘0x0000000000000000000000000000000000000000000000000000000000000000’,
  nonce: ‘0x0000000000000000’,
  number: 2,
  parentHash: ‘0xa7684ac44d48494670b2e0d9085b7750e7341620f0a271db146ed5e70c1db854’,
  receiptsRoot: ‘0x56e81f171bcc55a6ff8345e692c0f86e5b48e01b996cadc001622fb5e363b421’,
  sha3Uncles: ‘0x1dcc4de8dec75d7aab85b567b6ccd41ad312451b948a7413f0a142fd40d49347’,
  size: 606,
  stateRoot: ‘0x53580584816f617295ea26c0e17641e0120cab2f0a8ffb53a866fd53aa8e8c2d’,
  timestamp: 1492010474,
  totalDifficulty: { [String: ‘5’] s: 1, e: 0, c: [ 5 ] },
  transactions: [],
  transactionsRoot: ‘0x56e81f171bcc55a6ff8345e692c0f86e5b48e01b996cadc001622fb5e363b421’,
  uncles: [] }



 h = {
  difficulty: 103974998467336,
  extraData: "0x7777772e62772e636f6d",
  gasLimit: 4000000,
  gasUsed: 0,
  hash: "0x79feeecc59fcd9cd0172a2aa74e0884262a013e9df01ba3de00c4e9fd9030082",
  logsBloom: "0x00000000000000000000000000000000000000000000000000000000000000000000000000000000000000000000000000000000000000000000000000000000000000000000000000000000000000000000000000000000000000000000000000000000000000000000000000000000000000000000000000000000000000000000000000000000000000000000000000000000000000000000000000000000000000000000000000000000000000000000000000000000000000000000000000000000000000000000000000000000000000000000000000000000000000000000000000000000000000000000000000000000000000000000000000000000",
  miner: "0xc0ea08a2d404d3172d2add29a45be56da40e2949",
  mixHash: "0x511701dca1c909b2ce6c290f3bae4f8e6dfcfafe4a89d965be8acda30af39dfc",
  nonce: "0x6cf644a014119fb1",
  number: 2999999,
  parentHash: "0xe2d1f65910049c97f6d3f4044765acba2b3d1dedf14bd2da6cf0ed4088aa2ee2",
  receiptsRoot: "0x56e81f171bcc55a6ff8345e692c0f86e5b48e01b996cadc001622fb5e363b421",
  sha3Uncles: "0x1dcc4de8dec75d7aab85b567b6ccd41ad312451b948a7413f0a142fd40d49347",
  size: 527,
  stateRoot: "0x838bc3a25b5910f76c6f01c843037bdd63286204dd92be9270a497d51014fe5d",
  timestamp: 1484475017,
  totalDifficulty: 119976033070654618818,
  transactions: [],
  transactionsRoot: "0x56e81f171bcc55a6ff8345e692c0f86e5b48e01b996cadc001622fb5e363b421",
  uncles: []
}





sample = "f9020cf90207a0e2d1f65910049c97f6d3f4044765acba2b3d1dedf14bd2da6cf0ed4088aa2ee2a01dcc4de8dec75d7aab85b567b6ccd41ad312451b948a7413f0a142fd40d4934794c0ea08a2d404d3172d2add29a45be56da40e2949a0838bc3a25b5910f76c6f01c843037bdd63286204dd92be9270a497d51014fe5da056e81f171bcc55a6ff8345e692c0f86e5b48e01b996cadc001622fb5e363b421a056e81f171bcc55a6ff8345e692c0f86e5b48e01b996cadc001622fb5e363b421b9010000000000000000000000000000000000000000000000000000000000000000000000000000000000000000000000000000000000000000000000000000000000000000000000000000000000000000000000000000000000000000000000000000000000000000000000000000000000000000000000000000000000000000000000000000000000000000000000000000000000000000000000000000000000000000000000000000000000000000000000000000000000000000000000000000000000000000000000000000000000000000000000000000000000000000000000000000000000000000000000000000000000000000000000000000000000865e9090d96308832dc6bf833d09008084587b4a898a7777772e62772e636f6da0511701dca1c909b2ce6c290f3bae4f8e6dfcfafe4a89d965be8acda30af39dfc886cf644a014119fb1c0c0"

[
  [
    <parenthash>,
    <sha3Uncles>,
    <miner>,
    <stateRoot>,
    <transactionsRoot>,
    <recieptsRoot>,
    <logsBloom>,
    <difficulty>,
    <BlockNumber>,
    <gasLimit>,
    <gasUsed>,
    <timeStamp>,
    <extraData>,
    <mixHash>,
    <nonce>
  ],
  [
    <transaction1>,
    <transaction2>
  ],
  [
    <uncle1>,
    <uncle2>,
    <uncle3>
  ]
]


[ [ <Buffer e2 d1 f6 59 10 04 9c 97 f6 d3 f4 04 47 65 ac ba 2b 3d 1d ed f1 4b d2 da 6c f0 ed 40 88 aa 2e e2>,
    <Buffer 1d cc 4d e8 de c7 5d 7a ab 85 b5 67 b6 cc d4 1a d3 12 45 1b 94 8a 74 13 f0 a1 42 fd 40 d4 93 47>,
    <Buffer c0 ea 08 a2 d4 04 d3 17 2d 2a dd 29 a4 5b e5 6d a4 0e 29 49>,
    <Buffer 83 8b c3 a2 5b 59 10 f7 6c 6f 01 c8 43 03 7b dd 63 28 62 04 dd 92 be 92 70 a4 97 d5 10 14 fe 5d>,
    <Buffer 56 e8 1f 17 1b cc 55 a6 ff 83 45 e6 92 c0 f8 6e 5b 48 e0 1b 99 6c ad c0 01 62 2f b5 e3 63 b4 21>,
    <Buffer 56 e8 1f 17 1b cc 55 a6 ff 83 45 e6 92 c0 f8 6e 5b 48 e0 1b 99 6c ad c0 01 62 2f b5 e3 63 b4 21>,
    <Buffer 00 00 00 00 00 00 00 00 00 00 00 00 00 00 00 00 00 00 00 00 00 00 00 00 00 00 00 00 00 00 00 00 00 00 00 00 00 00 00 00 00 00 00 00 00 00 00 00 00 00 ... >,
    <Buffer 5e 90 90 d9 63 08>,
    <Buffer 2d c6 bf>,
    <Buffer 3d 09 00>,
    <Buffer >,
    <Buffer 58 7b 4a 89>,
    <Buffer 77 77 77 2e 62 77 2e 63 6f 6d>,
    <Buffer 51 17 01 dc a1 c9 09 b2 ce 6c 29 0f 3b ae 4f 8e 6d fc fa fe 4a 89 d9 65 be 8a cd a3 0a f3 9d fc>,
    <Buffer 6c f6 44 a0 14 11 9f b1> ],
  [],
  [] ]

"0x1111111111111111111111111111111111111111111111111111111111111111", "0x1111111111111111111111111111111111111111111111111111111111111111", "0x1111111111111111111111111111111111111111111111111111111111111111", "0x1111111111111111111111111111111111111111111111111111111111111111", "0x1111111111111111111111111111111111111111111111111111111111111111", "0x1111111111111111111111111111111111111111111111111111111111111111", "0x1111111111111111111111111111111111111111111111111111111111111111", "0x1111111111111111111111111111111111111111111111111111111111111111", "0x1111111111111111111111111111111111111111111111111111111111111111", "0x1111111111111111111111111111111111111111111111111111111111111111"



